{
  "contractName": "Funder",
  "abi": [
    {
      "inputs": [],
      "name": "NoofFunders",
      "outputs": [
        {
          "internalType": "uint256",
          "name": "",
          "type": "uint256"
        }
      ],
      "stateMutability": "view",
      "type": "function",
      "constant": true
    },
    {
      "stateMutability": "payable",
      "type": "receive",
      "payable": true
    },
    {
      "inputs": [],
      "name": "transfer",
      "outputs": [],
      "stateMutability": "payable",
      "type": "function",
      "payable": true
    },
    {
      "inputs": [
        {
          "internalType": "uint256",
          "name": "withdrawAmount",
          "type": "uint256"
        }
      ],
      "name": "withdraw",
      "outputs": [],
      "stateMutability": "nonpayable",
      "type": "function"
    }
  ],
  "bytecode": "0x608060405234801561001057600080fd5b50610224806100206000396000f3fe6080604052600436106100385760003560e01c80632e1a7d4d146100445780636798c91a1461006d5780638a4068dd146100985761003f565b3661003f57005b600080fd5b34801561005057600080fd5b5061006b60048036038101906100669190610197565b6100a2565b005b34801561007957600080fd5b50610082610101565b60405161008f91906101d3565b60405180910390f35b6100a0610107565b005b671bc16d674ec800008111156100b757600080fd5b3373ffffffffffffffffffffffffffffffffffffffff166108fc829081150290604051600060405180830381858888f193505050501580156100fd573d6000803e3d6000fd5b5050565b60005481565b33600160008054815260200190815260200160002060006101000a81548173ffffffffffffffffffffffffffffffffffffffff021916908373ffffffffffffffffffffffffffffffffffffffff160217905550565b600080fd5b6000819050919050565b61017481610161565b811461017f57600080fd5b50565b6000813590506101918161016b565b92915050565b6000602082840312156101ad576101ac61015c565b5b60006101bb84828501610182565b91505092915050565b6101cd81610161565b82525050565b60006020820190506101e860008301846101c4565b9291505056fea26469706673582212202067a3c991eb92aceb50b813156269ed89217856881b2202b230e4937de5baee64736f6c63430008090033",
  "immutableReferences": {},
  "source": "// SPDX-License-Identifier: MIT\r\npragma solidity >=0.4.22 <0.9.0;\r\n\r\ncontract Funder{\r\n    uint public NoofFunders;\r\n    mapping(uint=>address) private funders;\r\n\r\n    receive() external payable{}\r\n\r\n    function transfer() external payable{\r\n         funders[NoofFunders]=msg.sender;\r\n    }\r\n\r\n    function withdraw(uint withdrawAmount)external{\r\n        require(withdrawAmount <= 2000000000000000000);\r\n        payable(msg.sender).transfer(withdrawAmount);\r\n    }\r\n}",
  "sourcePath": "C:/Users/Arpit/Desktop/Dup-Transfer-DAPP/contracts/Funder.sol",
  "compiler": {
    "name": "solc",
    "version": "0.8.9+commit.e5eed63a.Emscripten.clang"
  },
  "schemaVersion": "3.2.3",
  "updatedAt": "2022-02-28T04:51:10.185Z",
  "networkType": "ethereum",
  "devdoc": {
    "kind": "dev",
    "methods": {},
    "version": 1
  },
  "userdoc": {
    "kind": "user",
    "methods": {},
    "version": 1
  }
}